:1000000000308A001F2A000083160612831206128F
:100010008316861283128612831606138312061322
:1000200083168613831286138E3083169F008312E5
:100030001F083839C1389F000030A1001F08C73998
:1000400021049F000930A000A00B2428000000001C
:100050008A11372A1F151F192B2883161E08831291
:10006000A6001E08A7000D30A000A00B35288A119D
:10007000382A293084008313000803194E280130E0
:10008000A100A001A00B4228A10B41284A30A000EA
:10009000A00B482800000000800B3F280034831686
:1000A0000612831206168316861283128612831690
:1000B00006138312061383168613831286132508EC
:1000C000A90039208316061283120616831686129B
:1000D000831286168316061383120613831686135D
:1000E000831286132508A90039208316061283126D
:1000F000061283168612831286168316061383123F
:10010000061383168613831286132508A900392047
:10011000831606128312061283168612831286161F
:10012000831606138312061783168613831286130B
:100130002508A90039208316061283120612831699
:1001400086128312861283160613831206178316ED
:100150008613831286132508A900392083160612F8
:1001600083120612831686128312861283160613D2
:100170008312061783168613831286172508A90093
:1001800039208316061283120612831686128312F2
:1001900086128316061383120613831686138312A0
:1001A00086172508A9003920831606128312061621
:1001B0008316861283128612831606138312061381
:1001C00083168613831286172508A90039208A1101
:1001D0003D2A831606128312061683168612831290
:1001E0008612831606138312061383168613831250
:1001F00086132508A90039208316061283120616D5
:10020000831686128312861683160613831206132C
:1002100083168613831286132508A90039208316B6
:10022000061283120612831686128312861683160E
:10023000061383120613831686138312861325086A
:10024000A90039208316061283120612831686121D
:1002500083128616831606138312061783168613D7
:10026000831286132508A90039208A11432A831690
:1002700006128312061683168612831286128316BE
:100280000613831206138316861383128617250816
:10029000A9003920831606128312061283168612CD
:1002A000831286128316061383120613831686138F
:1002B000831286172508A900392083160612831297
:1002C0000612831686128312861283160613831271
:1002D000061783168613831286172508A90039206E
:1002E0008316061283120612831686128312861252
:1002F000831606138312061783168613831286133A
:100300002508A90039208A11492A8316061283126A
:10031000061683168612831286128316061383121C
:10032000061383168613831286172508A900392021
:100330008316061283120612831686128312861201
:1003400083160613831206138316861383128617E9
:100350002508A90039208316061283120612831677
:1003600086128312861283160613831206178316CB
:100370008613831286172508A900392083160612D2
:1003800083120612831686128312861283160613B0
:100390008312061783168613831286132508A90075
:1003A00039208316061283120612831686128312D0
:1003B0008616831606138312061783168613831276
:1003C00086132508A9003920831606128312061207
:1003D000831686128312861683160613831206135B
:1003E00083168613831286132508A90039208316E5
:1003F0000612831206168316861283128616831639
:100400000613831206138316861383128613250898
:10041000A900392083160612831206168316861247
:10042000831286128316061383120613831686130D
:10043000831286132508A90039208A114F2A8401C6
:1004400083131F308305073083169F0083129F009C
:100450003230A500A601A701FF30A800FF308316A7
:1004600085000030860087008312A80004282A280F
:100470002708003C031C3E2A4F284F2A2708013C2E
:10048000031C442AE9284F2A2708023C031C4A2A55
:1004900037294F2A2708033C031C4F2A8529372A6E
:0204A0006300F7
:02400E00F93F78
:00000001FF
;PIC16F873A
